:020000040800F2
:10000000C006002089010008910100089301000842
:100010009501000897010008990100080000000000
:100020000000000000000000000000009B0100082C
:100030009D010008000000009F010008A1010008C8
:10004000A3010008A3010008A3010008A301000800
:10005000A3010008A3010008A3010008A3010008F0
:10006000A3010008A3010008A3010008A3010008E0
:10007000A3010008A3010008A3010008A3010008D0
:10008000A3010008A301000845020008A30100081D
:10009000A3010008A3010008A3010008A3010008B0
:1000A000A3010008A3010008A3010008A3010008A0
:1000B000A3010008A3010008A3010008A301000890
:1000C000A3010008A3010008A3010008A301000880
:1000D000A301000875090008A3010008A301000896
:1000E000A3010008A3010008A301000800F002F822
:1000F00000F03AF80AA090E8000C82448344AAF188
:100100000107DA4501D100F02FF8AFF2090EBAE885
:100110000F0013F0010F18BFFB1A43F0010318473B
:100120003814000058140000103A24BF78C878C171
:10013000FAD8520724BF30C830C144BF04680C60ED
:10014000704700000023002400250026103A28BF35
:1001500078C1FBD8520728BF30C148BF0B60704739
:100160001FB51FBD10B510BD00F031F81146FFF7E7
:10017000F7FF00F027FF00F04FF803B4FFF7F2FF9E
:1001800003BC00F057F800000948804709480047C1
:10019000FEE7FEE7FEE7FEE7FEE7FEE7FEE7FEE737
:1001A000FEE7FEE704480549054A064B7047000094
:1001B00015090008ED000008C0000020C00600205E
:1001C000C0020020C002002070477047704775468B
:1001D00000F02CF8AE4605006946534620F00700B3
:1001E000854618B020B5FFF7DDFFBDE820404FF091
:1001F00000064FF000074FF000084FF0000B21F011
:100200000701AC46ACE8C009ACE8C009ACE8C009DD
:10021000ACE8C0098D46704710B50446AFF30080C6
:100220002046BDE81040FFF7A8BF00000048704717
:100230006000002001491820ABBEFEE72600020046
:10024000704700000948006800F0020068B10748E4
:100250004C300068064908800120064908700348B0
:10026000006820F002000149086070470024014046
:10027000380000203A00002021B1826842F00102DB
:10028000826003E0826822F0010282607047000011
:1002900000B585B04FF4004000F032FA0121480269
:1002A00000F03AFA164800F02DF8002000908DF882
:1002B00004008DF805004FF46020029000200390A8
:1002C00001208DF8100069460D4800F06BF80121FF
:1002D0000B48FFF7D1FF0A4800F0E8F800BF0848D4
:1002E00000F055F80028FAD1054800F0EFF800BFFB
:1002F000034800F035F80028FAD105B000BD000031
:100300000024014010B504461248844208D101215E
:10031000401500F011FA0021601500F00DFA17E009
:100320000D48844208D10121001500F005FA002192
:10033000201500F001FA0BE00848844208D10121A1
:10034000C80300F0F9F900214FF4004000F0F4F97F
:1003500010BD00000024014000280140003C014085
:10036000014600208A6802F004020AB1012000E080
:10037000002070470146C86C80B2704702460020DA
:1003800013680B400BB1012000E0002070470146CC
:1003900000208A6802F008020AB1012000E0002073
:1003A0007047000030B502460020002350680F4C13
:1003B00020400D790C6844EA052420435060906881
:1003C0000B4C2040D1E902542C434D7944EA4504BA
:1003D00020439060D06A20F470000C7C641EE4B26C
:1003E000234340EA0350D06230BD0000FFFEF0FF1F
:1003F000FDF7F1FFF0B504460D4600200021092D60
:1004000011DDE068A5F10A0606EB4607072606FAA5
:1004100007F18843A5F10A0606EB460603FA06F142
:100420000843E0600CE0206905EB4507072606FA63
:1004300007F1884305EB450603FA06F108432061FE
:10044000072A0FDA606B561E06EB86071F2606FA90
:1004500007F18843561E06EB860605FA06F10843A7
:10046000606322E00D2A0FDA206BD61F06EB8607A9
:100470001F2606FA07F18843D61F06EB860605FA03
:1004800006F10843206310E0E06AA2F10D0606EBD6
:1004900086071F2606FA07F18843A2F10D0606EB30
:1004A000860605FA06F10843E062F0BD816841F076
:1004B00008018160704721B1826842F4A002826025
:1004C00003E0826822F4A00282607047816841F0F4
:1004D000040181607047000008B50121102000F080
:1004E0001BF94FF40050ADF8000002208DF8020017
:1004F00010208DF803006946014800F003F808BD9C
:10050000001001402DE9F0410246002500260020A0
:1005100000230024002791F803C00CF00F0591F888
:1005200003C00CF0100CBCF1000F03D091F802C016
:100530004CEA050591F800C0BCF1000F31D01468F9
:1005400000202BE04FF0010C0CFA00F3B1F800C0D2
:100550000CEA03069E4220D183004FF00F0C0CFAE8
:1005600003F7BC4305FA03FC4CEA040491F803C00A
:10057000BCF1280F06D14FF0010C0CFA00FCC2F8B8
:1005800014C00AE091F803C0BCF1480F05D14FF048
:10059000010C0CFA00FCC2F810C0401C0828D1D392
:1005A0001460B1F800C0BCF1FF0F34DD54680020C6
:1005B0002EE000F1080C4FF0010808FA0CF3B1F836
:1005C00000C00CEA03069E4221D183004FF00F0CBD
:1005D0000CFA03F7BC4305FA03FC4CEA040491F857
:1005E00003C0BCF1280F05D100F1080C08FA0CF883
:1005F000C2F8148091F803C0BCF1480F07D100F194
:10060000080C4FF0010808FA0CF8C2F81080401CE2
:100610000828CED35460BDE8F08102460020D3689C
:100620000B400BB1012000E0002070474161704792
:100630000161704721B1028842F48062028004E0C7
:1006400002884FF6FF331A400280704770B50246A9
:100650000024002500230020958A138B1B0445EA03
:10066000030626F07F4404EA01068E4201D10120F0
:1006700000E0002070BD21B1028842F48072028047
:1006800004E002884FF6FF631A400280704721B1F0
:10069000028842F40072028004E002884FF6FF53A1
:1006A0001A40028070470CB50246002000230193D7
:1006B000009300920B0F019321F07F41019B1BB12E
:1006C000009B1433009303E0090C009B1833009344
:1006D000009B1B680B400BB1012000E000200CBD0B
:1006E0000146088AC0B2704712B141F0010102E030
:1006F0004FF6FE7319400182704701827047000077
:1007000001460020034A506820F4404008435060EE
:10071000704700000010024029B1064A9269024366
:10072000044B9A6104E0034A92698243014B9A6147
:10073000704700000010024029B1064AD268024307
:10074000044BDA6004E0034AD2688243014BDA606A
:10075000704700000010024030B500210022002444
:1007600000232D4D6D6805F00C0121B1042905D041
:10077000082923D105E0294D056022E0274D0560B9
:100780001FE0254D6D6805F47012234D6D6805F46A
:100790008034022505EB92421CB9214D554305607A
:1007A0000BE01D4D6D6805F400351DB11C4D554322
:1007B000056002E0194D5543056002E0174D0560E4
:1007C00000BF00BF144D6D6805F0F0010909154D1B
:1007D0006B5C0568DD4045600F4D6D6805F4E061B8
:1007E000090A104D6B5C4568DD4085600A4D6D68F7
:1007F00005F46051C90A0B4D6B5C4568DD40C5606E
:10080000054D6D6805F44041890B074D6B5CC5686B
:10081000B5FBF3F5056130BD0010024000127A000F
:1008200000093D003B0000204B00002010B500F007
:1008300001F810BD0CB5002001900090334800680D
:1008400040F480303149086000BF3048006800F44F
:10085000003000900198401C0190009818B9019850
:10086000B0F5A06FF1D12948006800F4003010B154
:100870000120009001E0002000900098012843D161
:100880002348006840F010002149086008460068CD
:1008900020F0030008600846006840F0020008608D
:1008A0001A48406819494860084640684860084648
:1008B000406840F4806048600846406820F47C103E
:1008C00048600846406840F4E81048600846006800
:1008D00040F08070086000BF0C48006800F00070B5
:1008E0000028F9D00948406820F003000749486013
:1008F0000846406840F00200486000BF0348406876
:1009000000F00C000828F9D10CBD000000100240D6
:100910000020024010B51348006840F00100114962
:10092000086008464068104908400E49486008467B
:1009300000680E4908400B4908600846006820F42A
:10094000802008600846406820F4FE0048604FF4AC
:100950001F008860FFF76AFF4FF0006004490860DD
:1009600010BD0000001002400000FFF8FFFFF6FE7F
:1009700008ED00E010B540F22551974800F0A7F9C6
:1009800000287CD0944800F05DFAC0B22B280DD12D
:100990009248006850B992480068012806D12B207F
:1009A0009049087001208D4908600EE18A4800F0E6
:1009B00049FAC0B24A280ED18848006801280AD1F5
:1009C00087480068012806D14A20864948700220DD
:1009D00082490860F9E0804800F034FAC0B26F281C
:1009E0000ED17E48006802280AD17D48006801289F
:1009F00006D16F207B498870032078490860E4E0C5
:100A0000754800F01FFAC0B269280ED1734800681B
:100A100003280AD172480068012806D1692071496B
:100A2000C87004206D490860CFE06B4800F00AFAF6
:100A3000C0B26E280ED16948006804280AD16848FF
:100A40000068012806D16E206649087105206349B7
:100A50000860BAE0604800F0F5F9C0B241280FD153
:100A60005E48006805280BD15D480068012807D161
:100A700041205C494871062058490860A5E0A9E07A
:100A8000554800F0DFF9C0B263280ED15348006822
:100A900006280AD152480068012806D1632051492E
:100AA000887107204D4908608FE04B4800F0CAF973
:100AB000C0B263280ED14948006807280AD14848C7
:100AC0000068012806D163204649C87108204349BF
:100AD00008607AE0404800F0B5F9C0B265280ED150
:100AE0003E48006808280AD13D480068012806D120
:100AF00065203C49087209203849086065E036489D
:100B000000F0A0F9C0B270280ED13448006809285E
:100B10000AD133480068012806D170203149487253
:100B20000A202E49086050E02B4800F08BF9C0B233
:100B300074280ED1294800680A280AD1284800687C
:100B4000012806D17420274988720B2023490860A8
:100B50003BE0214800F076F9C0B2652812D11F4869
:100B600000680B280ED11E48006801280AD16520B4
:100B70001C49C8720C20194908600521164800F06C
:100B800066F922E0144800F05DF9C0B2642815D17E
:100B9000124800680C2811D11148006801280DD1B5
:100BA00064201049087300200C49086001200E4998
:100BB00008600521084800F04AF906E00848006886
:100BC000012802D100200549086040F22551024861
:100BD00000F062F810BD0000003801402000002045
:100BE0002C000020500000202800002000B585B017
:100BF000012144F20500FFF78FFD4FF40070ADF8BE
:100C0000000003208DF8020018208DF803006946CB
:100C10001F48FFF777FC4FF48060ADF80000032019
:100C20008DF8020004208DF8030069461848FFF78C
:100C300069FC0121174800F03EF84FF4E1300190C3
:100C40000020ADF80800ADF80A00ADF80C000C204B
:100C5000ADF80E000020ADF8100001A90D4800F01D
:100C600085F8012240F225510A4800F05AF8252063
:100C7000002809DB00F01F02012191404209920087
:100C800002F1E022C2F8001100BF05B000BD000073
:100C9000000801400038014010B50022002340F652
:100CA0006A14A14200D100BF0A1201249440A3B2E9
:100CB000DC43048010BD21B1828942F4005282815C
:100CC00004E082894DF6FF731A408281704770B547
:100CD0000246002400230025002040F66A16B14297
:100CE00000D100BFC1F3421501F01F03012606FA2F
:100CF00003F3012D02D19689334006E0022D02D183
:100D0000168A334001E0968A33400C12012606FA17
:100D100004F41688344013B10CB1012000E0002027
:100D200070BDF0B50346002400260025002040F6E3
:100D30006A17B94200D100BF1846C1F3421401F04E
:100D40001F06012707FA06F5012C01D10C3004E03B
:100D5000022C01D1103000E014301AB107682F4383
:100D6000076002E00768AF430760F0BD2DE9F04778
:100D700086B005460E460024A24600BFA1460027C5
:100D8000B08900B100BF2F462C8A4CF6FF7004409A
:100D9000F08804432C82AC894EF6F3100440B088EE
:100DA00031890843718908430443AC81AC8A4FF60A
:100DB000FF400440B0890443AC8201A8FFF7CCFC9B
:100DC0001F48874202D1DDF810A001E0DDF80CA039
:100DD000A88900F4004040B10AEBCA0000EB0A10F9
:100DE00031684900B0FBF1F807E00AEBCA0000EBFC
:100DF0000A1031688900B0FBF1F86420B8FBF0F00C
:100E000004012009642101FB1089A88900F4004035
:100E100040B1322000EBC900B0FBF1F000F0070058
:100E2000044308E0322000EB09106421B0FBF1F02C
:100E300000F00F0004432C8106B0BDE8F0870000ED
:100E40000038014001468888C0F308007047C1F3AC
:100E5000080282807047002107E0002200E0521C57
:100E600042F6FF239A42FAD3491C8142F5D37047D8
:100E700070B505460C46224629460B48FFF734FC60
:100E80003CB900BF09490848FFF7E0FB0028F9D04A
:100E900008E0012C06D100BF05490348FFF7D6FB47
:100EA0000028F9D070BD0000005800408200070003
:100EB0000200030070B504460D4600F01FF86106FD
:100EC000080E0121FFF7D4FF00F004F8287000F0AD
:100ED0002FF870BD10B500210648FFF7ABFB00BF2F
:100EE00005490448FFF7B2FB0028F9D00148FFF795
:100EF000F7FB10BD005800404000030010B500BFD4
:100F00004FF400310848FFF7CEFB0028F8D101214B
:100F10000548FFF7B0FB00BF04490348FFF796FB05
:100F20000028F9D010BD0000005800400100030067
:100F300010B501210548FFF7AAFB00BF044903488B
:100F4000FFF7B1FB0028F9D110BD000000580040A8
:100F50001000001010B5044621460548FFF7CDFBF0
:100F600000BF04490248FFF771FB0028F9D010BD0B
:100F7000005800408400070070B504460D46FFF796
:100F8000BDFF6106080E0021FFF772FF2846FFF73C
:100F9000E1FFFFF7CDFF70BD10B54FF400510848D9
:100FA000FFF73BFB0446012C04D141030448FFF743
:100FB0003DFB04E04FF400510148FFF739FB10BD41
:100FC0000010014070B54FF40051FE48FFF730FBB0
:100FD000FFF782FAFFF70AFEFFF75AF9FFF7CAFC9C
:100FE0004FF47A70FFF737FFFFF7D6FF0120F6497D
:100FF00008600020F5490860002491E10120F249D1
:1010000008604121F248FFF722FF0A20FFF723FF83
:101010005421EF48FFF71BFF0A20FFF71CFF5A215E
:10102000EB48FFF714FF0A20FFF715FF0D21E848F2
:10103000FFF70DFF0A20FFF70EFF0A21E448FFF734
:1010400006FF4FF4FA70FFF706FFFFF7A5FF4121F7
:10105000DF48FFF7FCFE0A20FFF7FDFE5421DC48C5
:10106000FFF7F5FE0A20FFF7F6FE2B21D848FFF721
:10107000EEFE0A20FFF7EFFE5621D548FFF7E7FE08
:101080000A20FFF7E8FE4521D148FFF7E0FE0A20DD
:10109000FFF7E1FE5221CE48FFF7D9FE0A20FFF705
:1010A000DAFE0D21CA48FFF7D2FE0A20FFF7D3FE71
:1010B0004FF4FA70FFF7CFFEFFF76EFF4121C448EF
:1010C000FFF7C5FE0A20FFF7C6FE5421C048FFF710
:1010D000BEFE0A20FFF7BFFE2B21BD48FFF7B7FE7B
:1010E0000A20FFF7B8FE4421B948FFF7B0FE0A20F6
:1010F000FFF7B1FE4321B648FFF7A9FE0A20FFF72C
:10110000AAFE3D21B248FFF7A2FE0A20FFF7A3FE88
:101110003021AF48FFF79BFE0A20FFF79CFE0D2110
:10112000AB48FFF794FE0A20FFF795FE4FF4FA70E4
:10113000FFF791FEFFF730FF4121A548FFF787FE3B
:101140000A20FFF788FE5421A148FFF780FE0A20FD
:10115000FFF781FE2B219E48FFF779FE0A20FFF75B
:101160007AFE44219A48FFF772FE0A20FFF773FEC9
:1011700052219748FFF76BFE0A20FFF76CFE3D21D6
:101180009348FFF764FE0A20FFF765FE332190487D
:10119000FFF75DFE0A20FFF75EFE0D218C48FFF78A
:1011A00056FE0A20FFF757FE4FF4FA70FFF753FE82
:1011B000FFF7F2FE41218648FFF749FE0A20FFF7BC
:1011C0004AFE54218248FFF742FE0A20FFF743FE01
:1011D0002B217F48FFF73BFE0A20FFF73CFE522100
:1011E0007B48FFF734FE0A20FFF735FE5821784888
:1011F000FFF72DFE0A20FFF72EFE32217448FFF77D
:1012000026FE0A20FFF727FE44217148FFF71FFE44
:101210000A20FFF720FE52216D48FFF718FE0A2032
:10122000FFF719FE3D216A48FFF711FE0A20FFF77C
:1012300012FE33216648FFF70AFE0A20FFF70BFE75
:101240000D216348FFF703FE0A20FFF704FE0A2181
:101250005F48FFF7FCFD4FF4FA70FFF7FCFDFFF766
:101260009BFE41215A48FFF7F2FD0A20FFF7F3FDEC
:1012700054215748FFF7EBFD0A20FFF7ECFD2B2127
:101280005348FFF7E4FD0A20FFF7E5FD4A215048E7
:10129000FFF7DDFD0A20FFF7DEFD4F214C48FFF789
:1012A000D6FD0A20FFF7D7FD49214948FFF7CFFDBA
:1012B0000A20FFF7D0FD4E214548FFF7C8FD0A2060
:1012C000FFF7C9FD3D214248FFF7C1FD0A20FFF7A6
:1012D000C2FD31213E48FFF7BAFD0A20FFF7BBFDF2
:1012E0000D213B48FFF7B3FD0A20FFF7B4FD4FF493
:1012F000FA70FFF7B0FDFFF74FFE0120324908609A
:10130000002506E04FF47A70FFF7A5FDFFF744FED5
:101310006D1C962D03DA2D4800680028F2D0641C5D
:10132000642C04DA2948006800283FF467AE8EE098
:1013300000F0D6F800F0B0F841212548FFF787FD0E
:101340000A20FFF788FD54212148FFF780FD0A207D
:10135000FFF781FD2B211E48FFF779FD0A20FFF7DB
:101360007AFD53211A48FFF772FD0A20FFF773FD3B
:1013700045211748FFF76BFD0A20FFF76CFD4E2152
:101380001348FFF764FD0A20FFF765FD442110486C
:10139000FFF75DFD0A20FFF75EFD3D210C48FFF7DA
:1013A00056FD0A20FFF757FD32210948FFF74FFD90
:1013B0000A20FFF750FD2C210548FFF748FD0A20C1
:1013C00008E00000001001402C0000202800002050
:1013D00000380140FFF73FFD30212048FFF737FD7F
:1013E0000A20FFF738FD78211C48FFF730FD0A205E
:1013F000FFF731FD33211948FFF729FD0A20FFF7D8
:101400002AFD33211548FFF722FD0A20FFF723FDAF
:101410002C211248FFF71BFD0A20FFF71CFD31218C
:101420000E48FFF714FD0A20FFF715FD0D210B48AC
:10143000FFF70DFD0A20FFF70EFD0A210748FFF711
:1014400006FD41F28830FFF706FDFFF7A5FD0448D1
:10145000006801283FF46CAF002070BD00380140E7
:101460002800002010B50446042301222146094823
:10147000FEF7C0FF01210748FFF71DF800BF02215A
:101480000448FEF77BFF0028F9D00248FEF772FF00
:1014900010BD00000024014010B50020FFF7E2FF5E
:1014A0000446200A0A490860E0B20A49086001209F
:1014B000FFF7D8FF0446200A07490860E0B2074951
:1014C00008600A20FFF7C7FCFFF766FD10BD0000AB
:1014D0001000002014000020180000201C00002034
:1014E00010B5F5214020FFF747FD6420FFF7B3FC5E
:1014F00014494020FFF7DEFC1248007812490860CA
:1015000010494020FFF7D6FC0E4800780F490860CC
:10151000F3214020FFF730FD6420FFF79CFC0949D0
:101520004020FFF7C7FC07480078094908600549D3
:101530004020FFF7BFFC0348007806490860FFF72A
:101540002BFD10BD30000020000000200400002012
:10155000080000200C000020781500080000002082
:101560005000000028010008C815000850000020A5
:1015700070060000440100080000000000000000A8
:10158000000000000000000000000000000000005B
:10159000000000000000000000000000000000004B
:1015A000000000000000000000000000000000003B
:1015B0000000000000000001020304010203040611
:0815C0000708090204060800F7
:04000005080000ED02
:00000001FF
